:020000040800F2
:10000000FCFF0020A516000059150000591500003E
:100010005915000059150000591500005915000028
:100020005915000059150000591500005915000018
:100030005915000059150000591500005915000008
:1000400059150000591500005915000059150000F8
:1000500059150000591500005915000059150000E8
:1000600059150000591500005915000059150000D8
:1000700059150000591500005915000059150000C8
:1000800059150000591500005915000059150000B8
:1000900059150000591500005915000059150000A8
:1000A0005915000059150000591500005915000098
:1000B0005915000059150000591500005915000088
:1000C0005915000059150000591500005915000078
:1000D0005915000059150000591500005915000068
:1000E0005915000059150000591500005915000058
:1000F0005915000059150000591500005915000048
:100100005915000059150000591500005915000037
:100110005915000059150000591500005915000027
:100120005915000059150000591500005915000017
:100130005915000059150000591500005915000007
:1001400059150000591500005915000059150000F7
:1001500001480068704700BF4400002083B0CDF81C
:1001600000E000F0FF031A09104603F00F021346E7
:1001700014E0194A02921FE0184A02921CE0184A41
:10018000029219E0174A029216E0174A029213E00F
:10019000164A029210E0164A02920DE00028E8D0BA
:1001A0000128E9D00228EAD00328EBD00428ECD0BB
:1001B0000528EDD00628EED0012212B29A40ADF803
:1001C000042002980A46BDF8041000F057F9DDF843
:1001D00000E003B0704700BF00080140000C014080
:1001E000001001400014014000180140001C0140B3
:1001F0000020014082B0CDF800E00346194601918D
:10020000FFF7A6FF40F2E83100FB01F201990A6016
:100210001F490978C1F30311C8B21E4909180878AB
:10022000C0B21A1D1968C140116019490988C1F38B
:10023000022188B2174909180878C0B203F20802EF
:10024000191D0968C140116011490988C1F3C22113
:1002500088B2104909180878C0B203F20C02191DBF
:100260000968C14011600A490988C1F3813188B227
:10027000094909180978C8B203F2100203F20C0107
:100280000968B1FBF0F11160DDF800E002B07047E1
:100290000410024012190000B414000081B0194982
:1002A00000EA0101084600220EE0042022E00820B6
:1002B00020E010201EE020201CE040201AE08020DA
:1002C00018E040F2001015E00F498842EDD00F49C8
:1002D0008842ECD00E498842EBD00E498842EAD0E1
:1002E0000D498842E9D00D498842E8D00C4988423E
:1002F000E7D010460B49096841EA000209490A6043
:1003000001B0704700FCFFFF00080140000C0140F5
:10031000001001400014014000180140001C014081
:10032000002001401810024081B0ADF800100146D5
:10033000BDF800000B68C3F3C01202B9FAE70A1D4A
:10034000106001B07047FFFF81B000F20C02116035
:1003500000F208021368C3F3000202B9F8E700F2E2
:100360000C02126890B201B07047FFFF81B0CDF867
:1003700000E0012252B23E490A6000F268010B68B7
:100380006FF0006103EA0102144603F00061C90E38
:100390000B4602F00041B1F1004F02D135490A6825
:1003A00001E035490A6804F47021090C0E464FF645
:1003B000FF7104EA01010D4604F44011B1F5401F3C
:1003C0000DD16FF0706102EA01010E462A490A68F8
:1003D0006FF070610A4028490A60324616E004F462
:1003E0008011B1F5801F09D14FF00301B140C9431D
:1003F00002EA010141F070610A4607E0610D09015E
:1004000005FA01F1C9430A4042F070622BB1610D57
:10041000090105FA01F10A43FFE704F00041B1F1D7
:10042000004F02D113490A6001E013490A6040F20B
:10043000000A81464FEA8A0109EB01010968B1F11E
:10044000FF3F10D009F134014FEA8A03C918096847
:100450000A4609EB0301096808461146FFF77EFECC
:100460000AF1010AE6E7DDF800E001B0704700BFDD
:10047000000342421C0001400400014081B0CDF85D
:1004800000E08CB21546774B00EA03031E4618467F
:10049000FFF704FFB4F1FF0F0CD1734B9D4203D162
:1004A0004FF033333360D9E0422D03D14FF0443362
:1004B0003360D3E04FF6FF739C4214D16A4B9D42E8
:1004C00007D14FF033333360341D4FF033332360A3
:1004D000C4E0422D07D14FF044333360341D4FF058
:1004E00044332360BAE00021002005F001030BB182
:1004F00000211DE005F0020333B105F4C0730BB118
:10050000082100E0042113E005F0040333B105F0F5
:1005100020030BB1042100E0002109E005F00803ED
:1005200033B105F020030BB10C2100E00821FFE7F7
:100530004E4B05EA03030BB1032009E005F40073F9
:100540000BB1022004E005F480630BB10120FFE74A
:1005500005F00C030BB10143FFE704F0FF039BB26E
:10056000002B3BD0376800201FFA84F832462E4615
:1005700008282CD24FF0010303FA00F408EA040320
:10058000A34222D185004FF00F03AB40DB4307EAC3
:10059000030401FA05F344EA03031D4606F48173DC
:1005A000B3F5817F05D102F214044FF001038340BB
:1005B000236006F08203822B05D102F210044FF073
:1005C0000103834023602F46FFE7401CD0E71760FC
:1005D0001FFA88F00F463146164602E00F462946BC
:1005E000A0B2B0F1FF0F39D9331DD3F8008000223B
:1005F000082A30D202F208044FF0010303FA04F48F
:1006000000EA0403A34224D195004FF00F03AB404E
:10061000DB4308EA030807FA05F348EA030801F494
:100620008173B3F5817F07D106F2140502F2080445
:100630004FF00103A3402B6001F08203822B07D10E
:1006400006F2100502F208044FF00103A3402B60EC
:10065000FFE7521CCCE7331DC3F80080DDF800E053
:1006600001B0704700FCFFFF1400080000080800FC
:1006700089B0CDF800E0834698B28C46BDF82410CE
:100680000A9E04ACADF80410ADF808002046FFF750
:10069000B1FDBDF80800BDF80410644CA34512D1AB
:1006A00001256DB2624C2560624D634C2560634D3F
:1006B000634C2560634D644C2560644D644C25603B
:1006C000079C039456E0634CA34512D101256DB2FB
:1006D000614C2560614D584C2560614D584C25603A
:1006E000604D594C2560604D594C2560069C039423
:1006F00040E05E4CA34512D101256DB25C4C2560F3
:100700005C4D4D4C25605C4D4D4C25605B4D4E4C19
:1007100025605B4D4E4C2560069C03942AE0594CA5
:10072000A34512D101256DB2574C2560574D424C5F
:100730002560574D424C2560564D434C2560564D23
:10074000434C2560069C039414E0544CA34511D1FE
:1007500001256DB2524C2560524D374C2560524DEB
:10076000374C2560514D384C2560514D384C256033
:10077000069C0394ADF80410ADF808003046FFF76E
:10078000F5FDBDF80800BDF804100BF110050024BC
:100790002C600BF110052C680C432C600BF10C0540
:1007A00000242C6018B140F4806080B2FFE70BF1A8
:1007B0000C052C6804432C600BF10C0601253468F1
:1007C00065F34D3434600BF10C060125346865F394
:1007D000C30434600BF10C060125346865F3820410
:1007E00034600BF1140500242C60039D192465432B
:1007F0004FEA8C04B5FBF4F76424B7FBF4F426014C
:10080000350964246C433C1B240104F23205642442
:10081000B5FBF4F404F00F0446EA04040BF10805F8
:10082000A4B22C60DDF800E009B070470038014048
:1008300038034242290A000050000020FFFFFFFF5A
:1008400054000020FFFFFFFF58000020FFFFFFFFC4
:100850005C00002000440040C4034242610A0000E2
:10086000FFFFFFFFFFFFFFFFFFFFFFFF004800400C
:10087000C8034242450A0000FFFFFFFFFFFFFFFFE2
:10088000FFFFFFFF004C0040CC0342428109000003
:10089000FFFFFFFFFFFFFFFFFFFFFFFF00500040D4
:1008A000D003424265090000FFFFFFFFFFFFFFFF8B
:1008B000FFFFFFFF81B000230360CB009BB242EA41
:1008C000030304689BB244EA03030360051D131489
:1008D0001C462B6864F382032B6000F21C05002485
:1008E0002B6864F3CB232B600124036864F3861325
:1008F000036001B07047FFFF81B0CDF800E0019DBB
:100900002C4610B408B493B28AB201460348FFF7EC
:10091000AFFE02B0DDF800E001B0704700440040D7
:1009200081B0CDF800E081B20348FFF70DFDDDF89E
:1009300000E001B0704700BF0030014081B0CDF849
:1009400000E0019D2C4610B408B493B28AB201466F
:100950000348FFF78DFE02B0DDF800E001B07047FC
:100960000038014081B0CDF800E081B20348FFF7C4
:10097000DBFCDDF800E001B0704700BF0050004034
:1009800081B0CDF800E081B20348FFF7CDFCDDF87F
:1009900000E001B0704700BF004C004081B0CDF8CE
:1009A00000E081B20348FFF7CFFCDDF800E001B0C2
:1009B000704700BF0030014081B0CDF800E081B247
:1009C0000348FFF7C1FCDDF800E001B0704700BF4D
:1009D000003C004081B0CDF800E081B20348FFF751
:1009E000B3FCDDF800E001B0704700BF0038004004
:1009F00081B0CDF800E081B20348FFF7A5FCDDF837
:100A000000E001B0704700BF003C004081B0CDF86D
:100A100000E081B20348FFF797FCDDF800E001B089
:100A2000704700BF0038004081B0CDF800E081B2CF
:100A30000348FFF779FCDDF800E001B0704700BF24
:100A40000038014081B0CDF800E081B20348FFF7E3
:100A50006BFCDDF800E001B0704700BF00480040CB
:100A600081B0CDF800E081B20348FFF75DFCDDF80E
:100A700000E001B0704700BF0044004081B0CDF8F5
:100A800000E0044A89B2FFF7F9FCDDF800E001B0AC
:100A9000704700BF1400080083B0CDF800E08DF867
:100AA000040002910B4C0C4B1C600C4C0C4B1C605A
:100AB000012464B20B4B1C601046FFF757FC029AEE
:100AC0009DF804100848FFF7F5FEDDF800E003B0DC
:100AD000704700BFB909000048000020F10900007C
:100AE0004C000020BC034242003C004081B0CDF8E5
:100AF00000E0019D2C4610B408B493B28AB20146BE
:100B00000348FFF7B5FD02B0DDF800E001B0704723
:100B10000048004081B0CDF800E04FF0420289B2B9
:100B2000FFF7ACFCDDF800E001B070470149086058
:100B3000704700BF8C01224201490860704700BF26
:100B4000B881224201490860704700BFAC012242CF
:100B500001490860704700BFA801224201490860AE
:100B6000704700BFA481224201490860704700BF5E
:100B7000A881224201490860704700BF80012142DC
:100B800001490860704700BFA08122420149086006
:100B9000704700BF9401214201490860704700BFBF
:100BA0009C81214201490860704700BF9881214221
:100BB000026803490A60011D0A6802490A60704719
:100BC000600000206400002001490860704700BFF9
:100BD0009C81214200F208010A6801490A607047BD
:100BE0006800002081B00A4681B200208DB2114613
:100BF000052805D20B1820221A70401CC0B2F7E756
:100C00000B1800221A70401EC0B20C180A23B5FB44
:100C1000F3F203FB125292B2303222700A22B5FB79
:100C2000F2F292B295B202B902E0401EC0B2ECE715
:100C300001B0704783B0CDF800E0ADF80810019026
:100C4000BDF80830BDF80820521EADF808204BB1A1
:100C50000020064C2468A047019A1070019A521C8B
:100C60000192EDE7DDF800E003B07047640000207A
:100C700001490860704700BF98812142014908601E
:100C8000704700BFB081224201490860704700BF31
:100C9000B001224201490860704700BFAC81224286
:100CA00001490860704700BF9481224201490860F1
:100CB000704700BF9881224281B0CDF800E0011D4D
:100CC0000A680168C8B21146034AFFF7E5FE002032
:100CD000DDF800E001B070473017000081B0CDF8BA
:100CE00000E0011D0A680168C8B21146034AFFF717
:100CF000D3FE0020DDF800E001B07047301700009F
:100D000081B0CDF800E0A9E0012905D140F2100141
:100D10006548FFF7FFFE04E040F210016248FFF76C
:100D2000ADFEBBE0012905D140F204015F48FFF7A9
:100D3000F1FE04E040F204015C48FFF79FFEADE0E5
:100D4000012905D142F200015948FFF7E3FE04E012
:100D500042F200015648FFF791FE9FE0012905D1BC
:100D600040F200415148FFF7D5FE04E040F2004157
:100D70004E48FFF783FE91E0012905D140F60001BE
:100D80004A48FFF7C7FE04E040F600014748FFF776
:100D900075FE83E0012905D141F200014348FFF7C8
:100DA000B9FE04E041F200014048FFF767FE75E03C
:100DB000012905D140F201013B48FFF7ABFE04E0F9
:100DC00040F201013848FFF759FE67E0012905D1DB
:100DD00040F200413648FFF79DFE04E040F200413A
:100DE0003348FFF74BFE59E0012905D140F20021BD
:100DF0002F48FFF78FFE04E040F200212C48FFF758
:100E00003DFE4BE0012905D140F200112848FFF7D3
:100E100081FE04E040F200112548FFF72FFE3DE07F
:100E2000012905D140F240012248FFF773FE04E09A
:100E300040F240011F48FFF721FE2FE0012905D1B4
:100E400040F280011B48FFF765FE04E040F280019C
:100E50001848FFF713FE21E0012020E000283FF4AE
:100E600053AF01283FF45EAF02283FF469AF032877
:100E70003FF474AF04283FF47FAF05283FF48AAFF6
:100E800006283FF495AF0728A0D00828ACD0092841
:100E9000B8D00A28C4D00B28D0D0DDE70020DDF878
:100EA00000E001B0704700BF0008014000100140A1
:100EB00000140140000C014081B0CDF800E0A9E031
:100EC000012905D140F220016548FFF723FE04E027
:100ED00040F220016248FFF7D1FDBBE0012905D1B6
:100EE00040F208015F48FFF715FE04E040F20801F8
:100EF0005C48FFF7C3FDADE0012905D144F20001D4
:100F00005948FFF707FE04E044F200015648FFF796
:100F1000B5FD9FE0012905D140F200415148FFF79E
:100F2000F9FD04E040F200414E48FFF7A7FD91E0D3
:100F3000012905D140F600014A48FFF7EBFD04E026
:100F400040F600014748FFF799FD83E0012905D1EC
:100F500041F200014348FFF7DDFD04E041F20001EA
:100F60004048FFF78BFD75E0012905D141F20001F2
:100F70003D48FFF7CFFD04E041F200013A48FFF79A
:100F80007DFD67E0012905D140F600013648FFF7F5
:100F9000C1FD04E040F600013348FFF76FFD59E062
:100FA000012905D140F240012F48FFF7B3FD04E0CD
:100FB00040F240012C48FFF761FD4BE0012905D1CB
:100FC00040F220012848FFF7A5FD04E040F220018F
:100FD0002548FFF753FD3DE0012905D140F24001CE
:100FE0002248FFF797FD04E040F240011F48FFF759
:100FF00045FD2FE0012905D140F280011B48FFF794
:1010000089FD04E040F280011848FFF737FD21E038
:10101000012020E000283FF453AF01283FF45EAFE9
:1010200002283FF469AF03283FF474AF04283FF46B
:101030007FAF05283FF48AAF06283FF495AF072815
:10104000A0D00828ACD00928B8D00A28C4D00B28D2
:10105000D0D0DDE70020DDF800E001B0704700BF30
:10106000000801400010014000140140000C014044
:1010700081B0CDF800E00178CCB2A0B2034C246876
:10108000A0470020DDF800E001B0704740000020DC
:1010900081B0CDF800E0094902B440F2000340F20B
:1010A000000240F20001FFF721FD01B0044A0549AA
:1010B0000A600020DDF800E001B070479C170000D6
:1010C000450A00004000002081B0CDF800E0094949
:1010D00002B440F2000340F2000240F20001FFF7C8
:1010E0000BFC01B0044A05490A600020DDF800E06D
:1010F00001B07047C4160000610A000040000020E3
:1011000081B0CDF800E0094902B440F2000340F29A
:10111000000240F20001FFF7EFFB01B0044A05496D
:101120000A600020DDF800E001B07047C41600003E
:10113000610A00004000002081B0CDF800E00949BC
:1011400002B440F2000340F2000240F20001FFF757
:10115000F5FB01B0044A05490A600020DDF800E013
:1011600001B0704708180000290A00004000002064
:1011700001490860704700BF9001214201490860A1
:10118000704700BFA801224201490860704700BFB4
:10119000B481224201490860704700BF88012242A1
:1011A00001490860704700BFB00122420149086050
:1011B000704700BFAC01224281B0CDF800E011E0E1
:1011C0000846FFF765FF16E00846FFF77DFF12E0CF
:1011D0000846FFF7B1FF0EE00846FFF791FF0AE06F
:1011E000012008E00028EBD00128EDD02028EFD026
:1011F0003028F1D0F4E7DDF800E001B07047FFFFE0
:1012000081B0CDF800E00E46002183B2002805DA57
:101210000121404280B280B28FB201E098B28FB219
:101220003146FFF7DFFC06213446B8B2002908D961
:1012300063184A1E92B2A21812781A70491E89B217
:10124000F4E72022227070B1002081B220464218BB
:101250001278202A02D1491C89B2F8E74A1E92B2BC
:1012600083182D221A70DDF800E001B07047FFFFEF
:1012700082B0CDF800E000200D4C2468A04701A802
:101280000221FFF7D7FC0120094C2468A04701AADE
:101290001078010289B2501C0078014389B240F6EF
:1012A000FF7001EA0000DDF800E002B0704700BF07
:1012B0006800002081B0CDF800E08B4609E0584678
:1012C000FFF7FAFC0AE05846FFF708FD06E00120A8
:1012D00004E00028F3D00128F5D0F8E7DDF800E0BD
:1012E00001B0704781B0CDF800E05FFA81F95FFA94
:1012F00082FA0FE05FFA8AF15FFA89F0FFF700FDEA
:101300000DE05FFA8AF15FFA89F0FFF7D5FD06E09C
:10131000012004E00028EDD00128F2D0F8E7DDF844
:1013200000E001B07047FFFF83B0CDF800E0024657
:1013300010460D228DF808200A228DF809201FE0A2
:10134000FFF796FE23E002782AB10190FFF790FEA6
:101350000198401CF7E71AE002782AB10190FFF7E4
:1013600087FE0198401CF7E702AA1046FFF780FEAF
:101370000DF109021046FFF77BFE08E0062007E0AA
:101380000029DDD00129DED00229E5D0F6E70020D2
:10139000DDF800E003B0704781B0CDF800E003460F
:1013A0000846FFF705FC1846FFF714FC0120034C24
:1013B0002468A047DDF800E001B070476800002015
:1013C00081B01CF8019B0BF8019BBBEB0A0FF8D115
:1013D00001B0704781B01548006840F00101134822
:1013E0000160134913480160104801681248014028
:1013F0000E4801600D4801686FF4802001400B48E1
:1014000001600C4801686FF4FE000140094801606A
:10141000064801686FF0A0500140044801604FF099
:1014200000010648016001B0704700BF0010024093
:101430000000FFF004100240FFFFF6FE2C100240F7
:1014400081B0CDF800E004490448FFF7A5FFDDF8BE
:1014500000E001B0704700BF2419000074180000BC
:1014600081B0CDF800E0002202210020FFF73AFF12
:101470000E4801460020FFF71DFF42F28051202058
:10148000FFF79AFE0A480221FFF74EFF44F67F77E6
:10149000C0F2120700BF00BF7F1EFDD100BF00BF1A
:1014A00000BFDDF800E001B0704700BF2C1900005C
:1014B00000000020020406088EB0CDF800E0FFF71F
:1014C000D7FE01A900B2FFF79BFE0D480121FFF7EF
:1014D0002BFF01A80221FFF727FF0A480221FFF78F
:1014E00023FF49F6FF67C0F224077F1EFDD100BF2E
:1014F00000BF00BF00BF00BFDDF800E00EB07047C6
:10150000140000202D00002081B04FF000094FF0A2
:10151000000CBDEB0A0F04DCBDEB0B0F01DBD44666
:10152000EA464BF8049BBBEB0A0FFAD1BCEB0A0F5F
:1015300005DDE246D9F800B00BF1040BF1E701B08C
:101540007047FFFF81B002490248016001B0704757
:10155000401901004400002081B0FEE701B070474F
:1015600081B0CDF800E0464A464B474C47494BF620
:101570008030814206D94648006840F00201444864
:10158000016011E045F6C050814206D9404800682C
:1015900040F001013E48016006E03D4801686FF0FF
:1015A000070001403A480160FFF714FF3948036023
:1015B00039480460394802EA00013948016002F004
:1015C000010040B119463648006800F002000028CA
:1015D00000D1F8E700E0194602F4803040B10B4634
:1015E0002F48006800F40030002800D1F8E700E040
:1015F0000B4602F0805068B12948006840F08051E5
:10160000274801602648006800F00050002800D1FB
:10161000F8E7FFE702F0806078B12148006840F009
:1016200080611F48016011461A461D48006800F09D
:101630000060002800D1F8E701E011461A4601F0E9
:10164000807070B11648006840F0807114480160E5
:1016500011461348006800F0007000B9F9E70A4627
:10166000FFE70C48006800F00C01900000F00C004F
:10167000814200D0F5E7DDF800E001B0704700BF1F
:101680008100010502841D0044060100401901008B
:1016900000200240041002402C100240FFFF0F0007
:1016A00000100240FFF75CFF00F084F9FFF74AFFEB
:1016B00000F040F9FFF7D4FEFFF7C2FEFFF7FCFE93
:1016C000FCE7FEE73500000036000000FFFFFFFFEB
:1016D000000000000000000000000000000000000A
:1016E00000000000000000000000000000000000FA
:1016F00000000000000000001808000018000000B2
:1017000000000000000000000000000000000000D9
:1017100000000000000000000000000000000000C9
:1017200000000000000000000000000008000008A9
:101730002A0000002B0000002C000000FFFFFFFF2C
:101740000000000000000000000000000000000099
:101750000000000000000000000000000000000089
:101760000000000018080000180800001808000019
:101770000000000000000000000000000000000069
:101780000000000000000000000000000000000059
:1017900000000000000000000011200838000000D8
:1017A00039000000FFFFFFFF000000000000000004
:1017B0000000000000000000000000000000000029
:1017C0000000000000000000000000000000000019
:1017D00018080000180000000000000000000000D1
:1017E00000000000000000000000000000000000F9
:1017F00000000000000000000000000000000000E9
:101800000000000030001408090000000A00000079
:10181000FFFFFFFF000000000000000000000000CC
:1018200000000000000000000000000000000000B8
:101830000000000000000000000000001808000088
:101840001800000000000000000000000000000080
:101850000000000000000000000000000000000088
:101860000000000000000000000000000000000078
:1018700004000000711100009511000089110000A2
:101880007D110000AD110000A1110000750B0000DA
:10189000690B00005D0B0000810B0000A50B000030
:1018A000990B0000FFFFFFFFFFFFFFFFFFFFFFFFA0
:1018B000FFFFFFFFFFFFFFFFFFFFFFFFFFFFFFFF38
:1018C000FFFFFFFFFFFFFFFFFFFFFFFFFFFFFFFF28
:1018D000FFFFFFFF2D2D2D2053797374656D204977
:1018E0006E6974202D2D2D00204D61676E65746921
:1018F00063204C696E6561722064617461203A20D6
:10190000005F5F5F5F5F5F5F5F5F5F5F5F5F5F5F46
:101910005F00000000000102030401020304060747
:101920000809FFFFF1090000B909000007000000E5
:101930000403000000B5DFF814B0DFF814A0DFF8EE
:1019400014C0FFF73DFD00BD704700BF0000002040
:101950003E000020D4180000FFFFFFFFFFFFFFFF45
:10196000FFFFFFFFFFFFFFFFFFFFFFFFFFFFFFFF87
:10197000FFFFFFFFFFFFFFFFFFFFFFFFFFFFFFFF77
:10198000FFFFFFFFFFFFFFFFFFFFFFFFFFFFFFFF67
:10199000FFFFFFFFFFFFFFFFFFFFFFFFFFFFFFFF57
:1019A000FFFFFFFFFFFFFFFFFFFFFFFFFFFFFFFF47
:1019B000FFFFFFFF00B5DFF810B0DFF810A0FFF762
:1019C000A3FD00BD704700BF000000206C00002098
:00000001FF
